:100000000C94C0020C9407030C9407030C94070390
:100010000C9407030C9407030C9407030C94070338
:100020000C9407030C9407030C94852A0C945B2B07
:100030000C943A2A0C9407030C9407030C940703BE
:100040000C9407030C9407030C9407030C94070308
:100050000C9407030C94612A0C9407030C94070377
:100060000C9407030C9407030C9407030C940703E8
:100070000C9407030C9407030C9407030C940703D8
:100080000C9407030C9407030C9407030C940703C8
:100090000C9407030C9407030C9407030C940703B8
:1000A0000C9407030C9407030C9407030501090241
:1000B000A10185020901A1000509190129081500FE
:1000C0002501950875018102050109300931158165
:1000D000257F95027508810609381581257F9501D0
:1000E00075088106050C0A38021581257F95017572
:1000F000088106C0C005010980A101850319012AF4
:10010000B700150126B700950175108100C0050CD8
:100110000901A101850419012AA002150126A002E6
:10012000950175108100C005010906A10105071997
:10013000E029E715002501950875018102950175F3
:100140000881010507190029FF150026FF00950603
:1001500075088100050819012905950575019102A9
:10016000950175039101C009023B00020100A0FA4C
:10017000090400000103010100092111010001220D
:1001800040000705810308000A090401000103007B
:100190000000092111010001227B000705820320D4
:1001A000000A1201000200000008734279000100F9
:1001B00001020001140354006500630068006E0032
:1001C00069006B002D004F000000180342006F0013
:1001D00061007200640073006F00750072006300BC
:1001E00065000000040309042223252628292A2C5F
:1001F0002D2F3032333536383A3B3D3E4042434571
:1002000047494A4C4E5051535557595A5C5E6062AB
:10021000646668696B6D6F71737577797B7D7F81BB
:10022000838587898A8C8E90929496989A9C9E9FBB
:10023000A1A3A5A7A8AAACAEAFB1B3B4B6B8B9BBD9
:10024000BCBEBFC1C2C3C5C6C7C9CACBCCCDCED048
:10025000D1D2D2D3D4D5D6D7D7D8D9D9DADADBDB35
:10026000DBDCDCDCDCDCDDDDDDDDDCDCDCDCDCDBCC
:10027000DBDBDADAD9D9D8D7D7D6D5D4D3D2D2D115
:10028000D0CECDCCCBCAC9C7C6C5C3C2C1BFBEBC08
:10029000BBB9B8B6B4B3B1AFAEACAAA8A7A5A3A179
:1002A0009F9E9C9A98969492908E8C8A898785833B
:1002B000817F7D7B79777573716F6D6B696866641B
:1002C00062605E5C5A5957555351504E4C4A4947EB
:1002D000454342403E3D3B3A3836353332302F2D90
:1002E0002C2A292826252322FFAA7F554000010118
:1002F00001010101010101020202020202020202E5
:1003000003030303030303030404040404040405B4
:100310000505050506060606060707070707080878
:100320000808090909090A0A0A0B0B0B0C0C0C0D29
:100330000D0D0E0E0E0F0F0F1010111111121213C2
:10034000131414151516161717181819191A1A1B3D
:100350001B1C1D1D1E1E1F2020212222232424259C
:100360002626272829292A2B2C2D2D2E2F303132D5
:1003700032333435363738393A3B3C3D3E3F4041E5
:1003800042434445464748494A4C4D4E4F505153CD
:1003900054555658595A5B5D5E5F61626465666884
:1003A000696B6C6D6F7072737577787A7B7D7E8008
:1003B00082838587888A8C8E8F91939596989A9C54
:1003C0009EA0A2A3A5A7A9ABADAFB1B3B5B7BABC68
:1003D000BEC0C2C4C6C9CBCDCFD1D4D6D8DBDDDF39
:1003E000E2E4E7E9EBEEF0F3F5F8FAFDFF00047F55
:1003F0003F1F643214643214783C1E1E140A05290F
:100400000014001A000800150017001C0018000C4A
:1004100000120013002A002B000400160007000938
:10042000000A000B000D000E000F0033002800E151
:10043000001D001B0006001900050011001000F14E
:1004400000ED00F200E500E0000351E300E20001EE
:10045000512C002C000251EF00EE00F0000100359D
:10046000001E001F00200021002200230024002580
:1004700000260027004C0001002D002E002F003028
:10048000003100380033003400360037000100012D
:100490000001000100010001000100BE00BD00A834
:1004A00000AA00A9000100010001000100010001F3
:1004B0000001000100010001000100010001003AFB
:1004C000003B003C003D003E003F00400041004238
:1004D00000430044004500010049004A004B00472A
:1004E0000001005000510052004F000100010001C6
:1004F000004C004D004E005300460001000100F387
:1005000000F900F400FE00010001000100010001FB
:1005100000010001000100FB00FA00FC00FF005F89
:10052000006000610062005600570001000100CE2B
:100530005CCB5CCA5CC35C5C005D005E005800552F
:10054000005400010001000100C75CC65CC45C5996
:10055000005A005B006300530001000100CD5CCC39
:100560005CC95CC85C0100010001000100010001E0
:100570000001000100010001000100010001000074
:1005800011241FBECFEFDAE0DEBFCDBF04B603FEFD
:1005900027C080911E0490911F04A0912004B09167
:1005A00021048730904BA740B04BD1F410921E0429
:1005B00010921F04109220041092210414BE84B7DC
:1005C000877F84BF0FB6F894A895809160008861FA
:1005D00080936000109260000FBEE0E0F8E30995A0
:1005E00024E0A0E7B2E001C01D92AE31B207E1F70E
:1005F00012E0A0E0B1E0EAE7FBE502C005900D9251
:10060000A037B107D9F70E94B6230C94482D0C945B
:100610000000E82F2CE0929FE00D11248E2F8770B0
:1006200041E001C0440F8A95EAF7E695E695E69524
:1006300085E0E89FF0011124E056FC4F30E020E017
:1006400070E05191DF011197CB01022E02C0969507
:1006500087950A94E2F78170819585278423852701
:100660008C932F5F3F4F2530310559F70895E82FC0
:100670002CE0929FE00D11249E2F9770E695E69551
:10068000E69585E0E89FF0011124E056FC4F50E02C
:1006900040E080E0219130E0092E02C03695279598
:1006A0000A94E2F721703327042E01C0220F0A9426
:1006B000EAF7822B4F5F5F4F4530510559F7089598
:1006C0008091E7039091E603981301C008958F5F2E
:1006D0008770FACFA4E7B2E0EFEF90E02D91821798
:1006E00051F0EF3F19F4211101C0E92F9F5F9630BF
:1006F000A9F7EF3F09F408950E2E000CFF0BEE58FA
:10070000FD4F82830895E4E7F2E09191891303C0DD
:10071000DF0111971C9292E0EA37F907B1F70895CB
:100720008091D90381111092D90308958091D80343
:100730009091E503892B9091BE03892B80937202DF
:100740009091D903992391F0892B8093720220E034
:1007500084E792E0FC013081019631112F5F32E095
:100760008A379307B9F721110E949003E0919E0305
:10077000F0919F03309731F00280F381E02D82E702
:1007800092E009940895882339F09091D803892B39
:100790008093D8030C9496030895882341F08095A4
:1007A0009091D80389238093D8030C9496030895DD
:1007B0009091E20392FF06C0282F28712830F9F4A7
:1007C000877F846093FF06C0282F28712831F1F4B9
:1007D000877E84612091E30320FF06C0382F3871A3
:1007E0003830D9F4877F816021FF06C0282F287117
:1007F0002831D1F4877E816194FD877E0895282F6A
:1008000024712430F9F68B7F8860DCCF282F247187
:10081000243101F78B7E8861DDCF382F3171313083
:1008200019F78E7F8860E0CF282F2171213121F7C1
:100830008E7E8861E1CFCF93DF93EC01803E9105FE
:1008400009F460C050F58133910509F4A6C090F415
:100850008932910509F49AC08A9709F4A5C0C1307C
:10086000D10509F462C0CE010497813A910508F0E0
:1008700055C05BC089339105F1F182389105D9F1FA
:10088000C59709F47CC0C83AD10508F094C0C53AB0
:10089000D10528F3A497D06448C0843E910509F49B
:1008A00053C068F4823E9105E1F1833E910509F45D
:1008B00040C0CE01805E9109089780F536C0863E23
:1008C000910509F44CC0873E910509F44DC081158E
:1008D00023E5920708F09AC0811532E5930708F0E6
:1008E00000C18F3F910511F008F074C08D3E910555
:1008F00050F2D0651AC08091E2038370B1F0C0EE6F
:10090000D0E013C08091E20380FD15C19091E30314
:1009100090FF0BC0C3EED0E084FF07C0D0E0C0E082
:1009200004C08091E20382FDF5CFCE01DF91CF912B
:1009300008958091E20382FD01C19091E30390FD4F
:10094000DECF84FFF2CFEACF8091E30381FFEDCFCA
:100950008091E203C7EED0E084FDE0CFE6CF809146
:10096000E20383FDF7CFE1CF8091E20383FDE9C08D
:100970009091E30391FFE5CFC4EED0E0D6CF809114
:10098000E20385FFD2CFC9E2D0E0CFCF8091E2036E
:1009900085FFCBCFC5E3D0E0C8CF8091E20386FFCF
:1009A000C4CFCAE2D0E0C1CF8091E20386FFBDCFC1
:1009B000C1E3D0E0BACFCF3BD10508F07ACFC85A17
:1009C000D0E0CC0FDD1FCF5BDD4F0990D881C02D6B
:1009D000D464ABCFC11581E5D80798F4C11520E5E3
:1009E000D20708F061C0C11530E2D30708F49DCFEB
:1009F000CE0190548115904108F090CFDF70D06AFD
:100A000094CFDC2FCC27C16FD06A8FCF811539E509
:100A10009307A0F5C11588E5D80708F07AC0C1157D
:100A200025E5D207C8F4C11534E5D30708F06CC03A
:100A30009E012370332781E090E002C0880F991F48
:100A40002A95E2F7C695C69520E2C29FE0011124DF
:100A5000C82BD92BDA6869CFCE0195558F3F910508
:100A600011F008F05BCF8C2F0E94D803C82FD0E084
:100A7000DC2FCC27CC27DF71D06257CF81153AE528
:100A8000930708F44BC090568115904208F046CF6A
:100A90008D2F8F710E94D80390E0982F8827882788
:100AA0009F718C2BEC01E8CF9E0174E03695279561
:100AB0007A95E1F723708C2F86958695837030E2C6
:100AC000839FC0011124922BC37021E030E002C04B
:100AD000220F331FCA95E2F7822B932BEC01DC68BF
:100AE00024CF9C012370332781E090E002C0880F5F
:100AF000991F2A95E2F7C695C69520E2C29FE001AC
:100B00001124C82BD92BEBCFDC2FCC27C46FD06A94
:100B10000CCFDC2FCC27C06FD06A07CF8F700E941C
:100B2000D80334E0D695C7953A95E1F7CF709C2F5E
:100B3000EC01D069FACEC9E3D0E0F7CEC2EED0E046
:100B4000F4CEC6EED0E0F1CE8F929F92AF92BF92DC
:100B5000DF92EF92FF920F931F93CF93DF938090DA
:100B6000DE039090DF03A090E003B090E10340919A
:100B7000DA035091DB036091DC037091DD03842A7A
:100B8000952AA62AB72A00ED15E02FE1E22EF12CD6
:100B9000C82FD0E08CE0989FC00DD11D1124DE2C11
:100BA000D501C4010E2C04C0B695A79597958795DD
:100BB0000A94D2F780FD17C081E0E81AF1080053CB
:100BC0001109003D8FEF180751F7D12C8D2DDF91C2
:100BD000CF911F910F91FF90EF90DF90BF90AF905A
:100BE0009F908F900895FE01E00FF11FEE0FFF1F01
:100BF000E150FC4F859194910E941B040197E1F212
:100C0000E5CFFF920F931F93CF93DF93FC01828177
:100C100000811181C081F180882311F1662301F1E7
:100C2000C8010E94A405D82F682FC8010E9409039B
:100C3000EC2FF0E08CE0F89EE00DF11D112480E334
:100C4000D89FE00DF11D1124EE0FFF1FE150FC4F66
:100C500085919491DF91CF911F910F91FF9008950D
:100C6000C8010E943703D82FE3CFCF93DF93EC0165
:100C70000E94A405EC2FF0E09CE0D99FE00DF11D4F
:100C8000112490E3899FE00DF11D1124EE0FFF1F49
:100C9000E150FC4F85919491DF91CF910C941B040E
:100CA00080E00895F894E82FE295EF70F0E041A11C
:100CB0008F7021E030E0B90102C0660F771F8A957E
:100CC000E2F7CB01962F9095942391A392A1892BC3
:100CD00082A378940895E42FF0E0EE0FFF1FED5704
:100CE000FE4F9081921B97FD9195292F38E1239F0C
:100CF000212D1124620F08950F931F93A42F10E04C
:100D0000F801EE0FFF1FED57FE4F9081905797FDB2
:100D10009195000F111FF801ED5AFE4F01A90052E5
:100D2000110B2003A001219F500D112428E330E076
:100D3000291B310997FD33951A2F1203F001139FD8
:100D4000F00D11244E0F5F1F9A01220F331F240F45
:100D5000351F37FF02C021583F4F220F232F221F7C
:100D6000330B620F1F910F9108950F931F93522F12
:100D700010E0F801EE0FFF1FED5AFE4FA1A9A0529F
:100D8000BB0B9D015203F001539FF00D1124000F86
:100D9000111FD801AD57BE4F2C912057330B420382
:100DA000D001439FB00D11249F012A0F3B1F37FF35
:100DB00002C0215C3F4F96E0359527959A95E1F763
:100DC000620F1F910F9108950F931F93522F10E000
:100DD000F801EE0FFF1FED5AFE4FA1A9A052BB0B69
:100DE0009D015203F001539FF00D1124000F111FBC
:100DF000D801AD57BE4F2C912057330B4203D00181
:100E0000439FB00D11249F012A0F3B1F37FF02C0E3
:100E100021583F4F220F232F221F330B620F1F91A8
:100E20000F910895EF920F931F9393E0099F800114
:100E30001124159507956E2D600F1F910F91EF905E
:100E40000895322F50E0FA01EE0FFF1FED5AFE4FCA
:100E500091A9905297FD9195440F551FFA01ED57B6
:100E6000FE4F2081231B330B290F311D97FD3A952F
:100E7000620F0895E42FF0E0EE0FFF1FED5AFE4FD2
:100E800061A9621B0895E42FF0E0EE0FFF1FED57FC
:100E9000FE4F6081621B0895622F08951F93182FE3
:100EA000822FE42FF0E0EE0FFF1FED57FE4F208161
:100EB000322F24EE329F312D1124412F50E0232F69
:100EC00030E0245E3F4F281B310937FF03C03195C6
:100ED0002195310983E0220F331F8A95E1F7CA017A
:100EE000821B930B9C0197FD20E0219F212D112453
:100EF000822F1F9108951F93172F922FE42FF0E058
:100F0000EE0FFF1FED57FE4F2081322F24EE329F50
:100F1000312D1124472F50E0232F30E0245E3F4F26
:100F2000291B310937FF03C031952195310993E021
:100F3000220F331F9A95E1F7421B530B57FD40E0F8
:100F4000742F719F712D11241F9108950895809120
:100F5000BF0380FD14C081FD14C082FD16C08091C6
:100F6000C103882381F0843180F422E3829FC00191
:100F7000112464E170E00E94C62B862F08958CE056
:100F8000089589E1089585E0089582E308958091A8
:100F9000BF0380FD16C081FD16C082FD16C0809182
:100FA000C0038823A1F0883280F428E0829FC0012A
:100FB000112468E270E00E94C62B862F672B39F05F
:100FC000089582E0089584E0089588E0089581E01E
:100FD0000895E3E1E80FE331E0F5F0E0E65BF24D80
:100FE0000C94DA2B0E94A70781958093C50308957E
:100FF0000E94A707FACF0E94A70781958093C40398
:1010000008950E94A707FACF0E94C7078093C603DE
:1010100008950E94C7078195F9CF0E94C70781955F
:101020008093C70308950E94C707FACF815F990B89
:1010300021E030E001C0220F8A95EAF78091C303D6
:10104000822B8093C30308958091BF0381608093B6
:10105000BF0308958091BF038260F9CF8091BF03E1
:101060008460F5CF4091C4038D3E59F48091C5034F
:1010700087FF0DC01092C50341110BC01092C10330
:1010800008C08E3E81F48091C50318169CF344235A
:1010900081F08091C6039091C703892B09F05AC053
:1010A0001092C00308958F3E49F447FFF0CF10928D
:1010B000C4038091C5038111ECCFE0CF803F19F4C8
:1010C0001416ACF3E4CF9091C603893F29F41916A6
:1010D000F4F61092C603DBCF8A3F19F497FFD7CFFF
:1010E000F8CF9091C7038B3F29F497FFD0CF109290
:1010F000C703CDCF8C3F19F41916CCF3C8CF9FE0AE
:10110000980F983090F4815F990B21E030E0B9019D
:1011100002C0660F771F8A95E2F7CB018095909108
:10112000C30389238093C303B2CF8D3F31F48091F1
:10113000BF038E7F8093BF03AACF8E3F21F480919F
:10114000BF038D7FF7CF8F3F09F0A1CF8091BF0301
:101150008B7FF0CF0895AF92BF92CF92DF92EF9244
:10116000FF920F931F93CF93DF93262FD72EE82F55
:10117000F0E0E351FD4F71110FC06491862FE62F0F
:101180007E2FDF91CF911F910F91FF90EF90DF9015
:10119000CF90BF90AF900895E72EF12CE49186E0B8
:1011A000689F80011124CFEFD0E0C801BE010E94EA
:1011B000B22BAB0130E0220F331F65E5649FC00105
:1011C000659F900D1124281B390B922F990F920FB8
:1011D0009E012E193F09E29FD001E39FB00D11241B
:1011E0006B2FD99E90011124232F33276E01C21A31
:1011F000D30A9601E29F6001E39FD00C11248D2D4C
:101200005E01A91AB108AE9C9001AF9C300DBE9C46
:10121000300D1124232F3327C21BD30BEC9F9001D9
:10122000ED9F300D112443305105C1F00C3F93E088
:10123000190768F441305105A9F042305105B1F069
:101240000F3F110508F09CCF8B2F632F99CF4430AF
:10125000510579F046305105B9F392CF6D2D8E2F9F
:10126000EB2F8ECF6E2FED2D8B2F8ACF832F6E2FEE
:10127000F7CF8E2FE32F84CFCF93DF93982F762F46
:10128000842FE901692F0E94AB08798368838A83E0
:10129000DF91CF9108958091D303982F9E7F29F4F9
:1012A000817082608093D30308958A34E8F381705B
:1012B0008864F8CF9C0190E080E0269F812D369FC6
:1012C000800D911D112408959C018230910508F430
:1012D00008959FEF213E8EE1380740F4C90145E0B3
:1012E000969587954A95E1F798E0980F61E0E62F8B
:1012F000E90FFF27FF1FAF0155954795842F449FA6
:10130000F001459FF00DF00D11242E173F0738F422
:101310009FEF940F961758F78FEF860F08954F3F62
:10132000E9F361E0640FF6CF0F93CF93DF93D72FEC
:10133000C82FB90147FD419528E330E0241B31094E
:1013400047FD3395229FA001239F500D500D11247E
:10135000669FC001679F900D900D1124840F951F0B
:101360000E946409982F990F692F680F600F7D2FD5
:101370008C2FDF91CF910F910895982FE82F96FD34
:10138000E0952E2F2F7096FD2F5FE695E695E6955A
:10139000E670F0E0EA5DFE4F8181829F802D212D75
:1013A000112482958F702295207F822B2081820FBD
:1013B00097FD8195805808950F931F93CF93DF93E6
:1013C0008B01D82FC42F822F0E94BD09EC2FF0E093
:1013D000EE0FFF1FED57FE4F90819058980F97FD2D
:1013E0009195990F692F2CE0629F612D1124600F58
:1013F000712F8D2FDF91CF911F910F910895FC01D7
:101400009B01009719F4832F80780895AC0197FF12
:1014100004C044275527481B590BB901640F751F99
:1014200037FD0FC0241B350BC901A5E0880F991F9C
:10143000AA95E1F70E94C62B80E2861BF7FD8195F5
:101440000895CB0165E0880F991F6A95E1F7BA010D
:10145000621B730B0E94C62B80E6EFCFEF920F93B7
:10146000CF93DF93D72FC82FBA01C9010E190E945D
:10147000FF09602F681B7D2F8C2FDF91CF910F917B
:10148000EF9008950F93CF93DF93D72FC82FBA0112
:10149000C9010E94FF09682F600F7D2F8C2FDF91FB
:1014A000CF910F910895EF920F931F93CF93DF93F6
:1014B000D62FC72F182FBA01C9010E19010F0E948C
:1014C000FF09081B019F012D11246D2F7C2F802FF8
:1014D000DF91CF911F910F91EF900895EF920F93AD
:1014E0001F93CF93DF93D62F172FC82FBA01C901AF
:1014F0000E19010F0E94FF09702F781B719F712D2B
:1015000011246D2F8C2FDF91CF911F910F91EF90B0
:1015100008950F931F93CF93DF93D62FC72F182FC4
:10152000BA01C901212F201B022F0E94FF09982F09
:10153000990F990F282F291B200F219F212D11244E
:101540006D2F7C2F822FDF91CF911F910F910895E6
:101550000F931F93CF93DF93D62F172FC82FBA0166
:10156000C901212F201B022F0E94FF09982F990FDC
:10157000990F782F791B700F719F712D11246D2F8A
:101580008C2FDF91CF911F910F9108950C94E20A57
:101590000C94ED0AEBECF3E0248130E1230F08F426
:1015A0002FEF248381E08093CA030895EBECF3E0EE
:1015B000248130E1231B08F420E0248381E0809320
:1015C000CA030895FC01EE0FFF1FE80FF91FE8564C
:1015D000FD4F6183408322830895FF920F931F93F1
:1015E000CF93DF93182F062FF42ED0E0C0E02F2DDD
:1015F000402F612FCE010E94E20A2196CA33D10505
:10160000B1F7DF91CF911F910F91FF900895FA01EB
:1016100081110994FB01FDCFE0919E03F0919F039E
:10162000309721F00190F081E02D099480E0089539
:1016300020919602309197022817390771F0909304
:10164000970280939602E0919E03F0919F0330975A
:1016500021F00680F781E02D0994089520919402ED
:10166000309195022817390771F090939502809375
:101670009402E0919E03F0919F03309721F0008443
:10168000F185E02D099408952FB7F89480917303A4
:1016900090917403A0917503B09176032FBF0895C4
:1016A0000E94440B2091C4033091C503232B21F0E9
:1016B00080937D0390937E032091C6033091C703EE
:1016C000232B21F080937B0390937C03E0919E0376
:1016D000F0919F03309749F082E08093C203048029
:1016E000F581E02D82EC93E009940895882309F4B4
:1016F00059C0823871F40E940C0B81FF53C089E3FA
:101700000E946A030E94960389E30E9483030C945B
:101710009603833859F40E940C0B80FF43C083E585
:101720000E946A030E94960383E5EFCF843859F440
:101730000E940C0B82FF36C087E40E946A030E945D
:10174000960387E4E2CF9CEF980F913AF0F290E293
:10175000980F983088F4877021E030E0A90102C02A
:10176000440F551F8A95E2F7CA0180959091D803DE
:1017700089238093D803CBCF9BE5980F933020F437
:1017800090E080E00C94180B98E5980F973120F4C6
:1017900090E080E00C942E0B8D3E20F00E943208E9
:1017A0000C94500B089590E080E00E94180B90E09C
:1017B00080E00E942E0B1092E5031092BE030E945F
:1017C000960386E0E2ECF3E0DF011D928A95E9F7EB
:1017D0001092C1031092C0031092BF030C94500BDF
:1017E0006093DA037093DB038093DC039093DD0353
:1017F0000C94D30B6093DE037093DF038093E003BC
:101800009093E1030C94D30B0F931F93CF93DF932B
:1018100000D000D0CDB7DEB741E050E060E070E02E
:1018200004C0440F551F661F771F8A95D2F7809119
:10183000DE039091DF03A091E003B091E1038A0100
:101840009B01082B192B2A2B3B2B09831A832B83F3
:101850003C83C901B8010F900F900F900F90DF915A
:10186000CF911F910F910C94FA0B0F931F93CF936D
:10187000DF9300D000D0CDB7DEB741E050E060E0AC
:1018800070E004C0440F551F661F771F8A95D2F77A
:1018900040955095609570958091DE039091DF039F
:1018A000A091E003B091E1038A019B010823192371
:1018B0002A233B2309831A832B833C83C901B80164
:1018C0000F900F900F900F90DF91CF911F910F917C
:1018D0000C94FA0B9091E403809589238093E403A0
:1018E000282F277039F4282F082E000C330B92175D
:1018F000130621F49091E30392FF07C08595859527
:1019000085950E94350C1092E40308959C014FB711
:10191000F8948091730390917403A0917503B09132
:1019200076034FBF821B930B089580919302089515
:10193000FC01CB01209186023091870226173707E0
:1019400090F0009729F42091E8002E772093E8008A
:1019500040E0009751F4411108C08091E80082FFF7
:1019600031C080E00895C901F3CF20918A0322237A
:10197000A9F12530A9F12091E80023FD2DC0209187
:10198000E80022FDEACF2091E80020FFE2CF30916D
:10199000F3002091F200009719F02830310558F03B
:1019A00041E02830310509F040E02091E8002E7731
:1019B0002093E800CECF41914093F10001972F5F33
:1019C0003F4FE9CF80918A03882341F0853041F071
:1019D0008091E80083FFC1CF81E0089582E00895FF
:1019E00083E008958091800287FF13C08091E80012
:1019F00082FF06C08091E8008B778093E80004C0E6
:101A000080918A038111F2CF089580918A038823FF
:101A1000D9F38091E80080FFF8CF8091E8008E77BD
:101A2000ECCF2091E4003091E50095E6A9012091EA
:101A3000EC00822F817020FF06C08091E80080FFBB
:101A400006C080E008952091E80022FD1AC0809130
:101A50008A03882389F0853089F08091EB0085FD29
:101A60000FC02091E4003091E50042175307F9F2CE
:101A70009150E1F684E0089582E0089583E00895AE
:101A800081E00895E8EDF0E080818E7F8083109200
:101A9000E2001092DA001092E100A0EEB0E08C912A
:101AA00081608C9380818F77808319BCA7EDB0E033
:101AB0008C918E7F8C9380818F7E808310927F02A9
:101AC0000895EF92FF920F931F93CF937C018B01A8
:101AD0000E94110DC82F811117C08091E80085FD6B
:101AE0000BC08091E8008E778093E8000E94110D72
:101AF000882399F3C82F08C0F70181917F01809353
:101B0000F1000150110949F78C2FCF911F910F91CE
:101B1000FF90EF9008959091CB03937061F08093C4
:101B2000CC036093CD03493708F048E74093CE03D8
:101B300081E08093CA030895EBECF3E0818190E0AB
:101B40004381628108960C948B0DEBECF3E081816C
:101B5000438162818850990B0C948B0DEBECF3E080
:101B6000628120E1620F08F46FEF8181438190E090
:101B70000C948B0DEBECF3E0628120E1621B08F426
:101B800060E08181438190E00C948B0DEBECF3E0FD
:101B9000438120E1420F08F44FEF8181628190E0A0
:101BA0000C948B0DEBECF3E0438120E1421B08F435
:101BB00040E08181628190E00C948B0DAF92BF92E6
:101BC000CF92DF92EF92FF920F931F93CF93DF9309
:101BD0005C01C0911F018CE0C89FC02D11241CE046
:101BE0001C0FC12E1B3310F03AE3C32E6091CF03BC
:101BF000669580917703909178030E945A09D82EB8
:101C0000D0E0CE01880F991F9C012D5A3E4F7901DB
:101C1000CC1578F081E01A3308F080E0DF91CF91A5
:101C20001F910F91FF90EF90DF90CF90BF90AF90FA
:101C30000895FE01E950FE4F808190912001892393
:101C4000C1F0F70121A92052330B40A94057550B91
:101C50006091CC037091CD038091CE030D2DF501E1
:101C600009950E94AB08462F672F282FCE010E94AE
:101C7000C60AF2E0EF0EF11C2196CACF5F926F9276
:101C80007F928F929F92AF92BF92CF92DF92EF920C
:101C9000FF920F931F93CF93DF934C01C0911F01CD
:101CA0008CE0C89FC02D11241CE01C0F512E1B334B
:101CB00010F03AE3532E6091CF036695809177033D
:101CC000909178030E945A09F82ED0E0CE01880F37
:101CD000991F9C012D5A3E4F6901C515A0F081E066
:101CE0001A3308F080E0DF91CF911F910F91FF90A0
:101CF000EF90DF90CF90BF90AF909F908F907F90AC
:101D00006F905F900895FE01E950FE4F80819091A1
:101D10002001892379F1F60180A9282F2057330B60
:101D2000590181A9E82FE052FF0B3F01AA9C9001C5
:101D3000AB9C300D300D1124EE9FC001EF9F900D34
:101D4000900D1124820F931F0E946409082F609147
:101D5000CC037091CD038091CE03EF2C9301A501AC
:101D6000F40109950E94AB08462F672F282FCE015A
:101D70000E94C60AF2E0CF0ED11C2196AECFBF92D0
:101D8000CF92DF92EF92FF920F931F93CF93DF9347
:101D900000D000D00F92CDB7DEB76C0180911F014B
:101DA00089838CE09981989F802D11248B839CE0FE
:101DB000F92EF80EBF2CEAE3EF1510F48AE3B82EE3
:101DC0006091CF0366956695809177039091780333
:101DD0000E945A09182F80E4810F0E94BD09805883
:101DE0008983812F0E94BD0980588A839B81892F16
:101DF00090E09D838C839C819B15A0F081E0E9E3BA
:101E0000EF1508F480E00F900F900F900F900F9057
:101E1000DF91CF911F910F91FF90EF90DF90CF90C6
:101E2000BF900895EC81FD81E950FE4F8081909133
:101E300020018923A9F06091CC037091CD0380919A
:101E4000CE03E12E0C812A814981F60109950E9479
:101E5000AB08462F672F282F8C819D810E94C60AD0
:101E60008C819D810196C5CFDF92EF92FF920F93F7
:101E70001F93CF93DF937C01C0911F018CE0C89F1B
:101E8000C02D11241CE01C0FD12E1B3310F08AE34F
:101E9000D82E6091CF036695669521E0620F08F415
:101EA0006FEF80917703909178030E945A09082F71
:101EB000D0E0CD1560F081E01A3308F080E0DF91CA
:101EC000CF911F910F91FF90EF90DF900895FE0149
:101ED000E950FE4F808190912001892391F060911B
:101EE000CC037091CD038091CE03202F4C2FF701AE
:101EF00009950E94AB08462F672F282FCE010E941C
:101F0000C60A2196D6CF9091CB03937091F0882387
:101F100089F08C3188F48F73880F880F9091CB03F0
:101F20009370892B8093CB031092220181E08093E0
:101F3000CA03089581E0F0CF8BE1EECF8091CB030F
:101F4000869586958F5F8C3108F081E00C94830F25
:101F50009091CB03969596958FEF890F913009F468
:101F60008BE10C94830F982F9093E900242F762F08
:101F700050E0891731F07091EC002091ED00509104
:101F8000F00021FD06C09F5F973071F78093E90054
:101F900008953091EB003E7F3093EB003091ED00DF
:101FA0003D7F3093ED003091EB0031603093EB00DA
:101FB0007093EC002093ED005093F0002091EE0020
:101FC00027FDE1CF0895CF92DF92EF92FF920F931A
:101FD0001F93CF93DF93C8EDD0E088818F7E8883F5
:101FE000E7EDF0E080818160808384E082BF81E062
:101FF00080937F0288818E7F888302EE10E0F80153
:1020000010821092DA0081EEC82ED12CF6011082D7
:1020100088818F77888388818068888388818F7D95
:10202000888319BC10928A0310927E021092890351
:1020300010927D0290EEE92EF12CF70180818B7FCA
:10204000808388818160888342E060E080E00E9434
:10205000B30FF60180818E7F8083F80180818160DB
:102060008083808188608083F70180818E7F808378
:10207000888180618883DF91CF911F910F91FF90BC
:10208000EF90DF90CF9008950E943506282F892F7A
:102090008F70392F32953F70903C80F43A30B0F415
:1020A000343020F4323090F480E008953630E1F797
:1020B00081E0283E88F0213FB9F70EC03C3011F096
:1020C0003F3091F7869586958695089581E0203F6B
:1020D00039F018F4283E40F70895243F29F7FCCF43
:1020E0000895CF93C82F882309F48FC08238C1F494
:1020F0000E940C0B81FD89C089E30E946A030E9443
:1021000096032FEF31EE84E0215030408040E1F71C
:1021100000C0000089E30E948303CF910C949603D2
:102120008338A1F40E940C0B80FD6FC083E50E94F0
:102130006A030E9496039FEF21EE34E09150204005
:102140003040E1F700C0000083E5E5CF8438A1F41A
:102150000E940C0B82FD59C087E40E946A030E9412
:1021600096038FEF91EE24E0815090402040E1F7FC
:1021700000C0000087E4CFCF8CEF8C0F813A68F469
:10218000E4E7F2E08191C817D1F132E0EA37F307D2
:10219000C9F78C2F0E946A03C0CF80E28C0F883071
:1021A00068F4C77021E030E001C0220FCA95EAF759
:1021B0008091D803822B8093D803AFCF8BE58C0F0F
:1021C000833038F42C2F2452330BC901CF910C9457
:1021D000180BE8E5EC0FE73150F4F0E0EE0FFF1FCD
:1021E000EF5BFD4F80819181CF910C942E0BCD3E02
:1021F00060F08C2F0E94E907CF910C94500B8C2F2C
:102200000E9483030E949603C4CFCF9108959C013E
:10221000AB013E9A68B16F7B78B17064EFB7F89408
:10222000CA01880F991F840F951F820F931F821771
:10223000930741F4EFBF8FE594E00197F1F700C0F9
:1022400000000895D9014D919D0158E078B9000032
:1022500000C047FF68B9440F000000C000C000C0C4
:1022600068B900C05A9591F7E2CF8091D30380FD01
:102270000AC0E9E4F3E0118210821282339683E00F
:10228000E736F807C1F76AE070E089E493E00C9460
:102290000711EF92FF920F931F93CF93DF93EC01FF
:1022A00009E413E0F12CE12C9C816091D50380912D
:1022B000D40325E0E216F104FCF49923F9F0980127
:1022C0004091D6030E943C098FEFE81AF80A0D5F8F
:1022D0001F4F2AE0E216F10439F70E9435118C8174
:1022E00090E00196817099278C83DF91CF911F91A7
:1022F0000F91FF90EF900895992309F3980140E022
:10230000E1CFEF92FF921F93CF93DF93EC0189E42B
:10231000E82E83E0F82E10E08C8197014091D603DF
:102320006091D503810F0E943C09175E83E0E80E9F
:10233000F11C1A3F89F70E9435119A818C8190FF18
:1023400008C08F5F8C83DF91CF911F91FF90EF903A
:1023500008958150F7CFCF92DF92EF92FF920F93C3
:102360001F93CF93DF93FC018281DD24DA9480FDFB
:1023700002C0DD24D39409E413E0D0E0C0E0F8010A
:1023800011821082128294E0E92EF12CC12C8091EE
:1023900048038C0D8B30E4F16AE00E94A42B892F56
:1023A000082E000C990B8C179D0791F48091D60391
:1023B0008E9DA0018F9D500D1124559547955595E3
:1023C000479598016091D5038091D4030E943C0900
:1023D000CD0CF1E0EF1AF108D1F621960D5F1F4FF9
:1023E000CA30D10561F60E9435118091480391E011
:1023F000D91212C08823B1F0815080934803DF9135
:10240000CF911F910F91FF90EF90DF90CF900895A3
:1024100087FFC6CF865FC4CF90E00196BE010E94C1
:10242000C62BEBCF89E0E9CF0F931F93CF93DF93B8
:10243000C9E4D3E0FE01118210821282339683E058
:10244000E736F807C1F710E000E080914703082E57
:10245000000C990B081719078CF180910701082EC1
:10246000000C990B801791074CF19E014091D60307
:102470006091D5038091D4030E943C090F5F1F4FE8
:1024800023960A30110509F70E9435118091060143
:1024900090914703980F9093470320910701280FCD
:1024A00020930701121614F499301CF08195809343
:1024B0000601DF91CF911F910F9108951982188223
:1024C0001A82DCCFCF92DF92EF92FF920F931F938D
:1024D000CF93DF93CDB7DEB72E970FB6F894DEBF5C
:1024E0000FBECDBF8D879E87AD85BE8514961C918E
:1024F000212F30E0D9010E94392D9B01AC010E94AF
:10250000042D69837A838B839C83E0E2F0E0E11BF6
:10251000F109A5E5B0E09B01AC010E94042D69879B
:102520007A878B879C879F01DF010E94E02B9B01AC
:10253000AC010E940F2D6D837E838F8398879B0152
:10254000AC0189819A81AB81BC81280F391F4A1F58
:102550005B1F69857A858B859C850E94172DF22EDD
:10256000422F50E099E29F1508F442C0A3E02A9F51
:102570009001112435952795122F109599E4C92EB5
:1025800093E0D92E00E085E5E82EEF188E2D01FDB1
:102590008F2D9601412F6091D5030E943C090F5F5A
:1025A000B3E0CB0ED11C0A3089F70E943511ED85BE
:1025B000FE85948181E0992319F0903219F48FEF10
:1025C0008093050180910501890FAD85BE85149624
:1025D0008C932E960FB6F894DEBF0FBECDBFDF9161
:1025E000CF911F910F91FF90EF90DF90CF900895C2
:1025F00085E590E0841B950B9C01220F331F280F6B
:10260000391F37FFB7CF2F5F3F4FB4CF9091D30320
:1026100090FF0CC0E9E4F3E081836083428333964A
:1026200093E0E736F907C1F70C94351108950F933D
:102630001F93CF93DF9300D00F92CDB7DEB78C01FD
:102640008091460381110AC09E012F5F3F4F4FEFDB
:102650006FEF0E943C098A8180934603F8016481F0
:10266000613049F06230F1F08091460340E066232A
:1026700031F040E019C06091460340E080E00E94E4
:102680000613F801848190E0019663E070E00E94F7
:10269000C62B84830F900F900F90DF91CF911F91E5
:1026A0000F9108954091460380E060E0E8CFCF931A
:1026B000DF9300D00F92CDB7DEB79091D30390FF98
:1026C0000FC09E012F5F3F4F0E943C094B816981E3
:1026D0008A810F900F900F90DF91CF910C94061389
:1026E0000F900F900F90DF91CF910895CF93DF93CC
:1026F000EC01EC81F0E0E851FE4F4491E3EDF3E0B2
:10270000628181810E9457138C818F5F8C83DF915E
:10271000CF910895CF93DF93EC01E3EDF3E0438194
:1027200062818C810E9457138C818F5F8C83DF9133
:10273000CF9108956AE370E088E992E00C94071164
:1027400081E08093E00080E28093D8001092C9007D
:102750008FE19EE40197F1F700C0000087E090EB65
:10276000DC0180931E0490931F04A0932004B09377
:10277000210488E19CE00FB6F894A895809360004E
:102780000FBE90936000FFCFCF93DF93D82FC92F58
:1027900081E08093E9008FEF9091E800815095FDF2
:1027A00006C095ED9A95F1F700008111F5CF809163
:1027B000E80085FF16C050E040E068E070E08D2F33
:1027C0009C2F0E94610D8091E8008E778093E80035
:1027D00088E0ED2FFC2FABE8B2E001900D928A95D6
:1027E000E1F7DF91CF91089522E02093E9002FEFE8
:1027F0003091E800215035FD06C035ED3A95F1F7EE
:1028000000002111F5CF2091E80025FF0BC050E01A
:1028100040E066E070E00E94610D8091E8008E77F4
:102820008093E800089590918A03943031F5809365
:1028300088026093890270938A0282E08093E900A3
:102840008FEF9091E800815095FD06C095ED9A9527
:10285000F1F700008111F5CF8091E80085FF0DC0F0
:1028600050E040E063E070E088E892E00E94610D93
:102870008091E8008E778093E8000895BC0183E0A2
:102880000C941314BC0184E00C941314FF920F9366
:102890001F93CF93DF93C62FD42F122F8823A9F035
:1028A0006093C8030E94440B90937B0280937A024A
:1028B000C77081E001C0880FCA95EAF7DF91CF9118
:1028C0001F910F91FF900C94C3038091C80368136C
:1028D00037C080917A0290917B020E94860C883CDE
:1028E000910570F500E20D0FCD17A9F0C770FF2418
:1028F000F3948F2D01C0880FCA95EAF70E94CD038B
:10290000083048F48D2F877001C0FF0C8A95EAF7D4
:102910008F2D0E94C303812F0E947110812F0E946E
:10292000760B0830A0F4D77081E001C0880FDA95EB
:10293000EAF7DF91CF911F910F91FF900C94CD0397
:10294000C77081E001C0880FCA95EAF7F2CFDF9126
:10295000CF911F910F91FF900895CF93C091E30302
:10296000C2FB992790F9981781F080FBC2F9C093B8
:10297000E3036091E20384E090E00E94C12C6C2F9D
:1029800082E290E0CF910C94C12CCF9108951092E7
:10299000D803E4E7F2E086E0DF011D928A95E9F7CB
:1029A0000C94D30B1F93CF93DF93CDB7DEB7AA97C9
:1029B0000FB6F894DEBF0FBECDBF80E892E0FC01F9
:1029C00001962091F100208322E088389207B9F720
:1029D00080918102893009F456C0C8F4823009F42C
:1029E000B1C0833009F480C0813071F18091E8007A
:1029F00083FF78C280918002909181029A3008F022
:102A000071C2E92FF0E0E35AF24D0C94DA2B8A30D0
:102A100009F487C08B3051F780918002813231F701
:102A20008091840290918502892B01F78091E800C2
:102A3000877F8093E8000E94F20C8091820280934D
:102A400004010E94C714D2CF80918002813A71F6AE
:102A50008091E800877F8093E800809184029091C4
:102A60008502892B61F468E08BE892E070E00E94B7
:102A7000980C8091E8008B778093E800B7CF60E0F6
:102A800090E080E0F3CF80918002813209F0AECFF8
:102A90008091840290918502029708F0A7CF8091DF
:102AA000E800877F8093E8008091E80082FF17C0EC
:102AB0009091F3008091F200029729F48091F10047
:102AC0008B7F813021F48091F1008093930280917B
:102AD000E8008B778093E8000E94F20C87CF80910A
:102AE0008A038111E1CF82CF80918002813A09F07F
:102AF0007DCF8091840290918502892B09F076CF59
:102B00008091E800877F8093E8008091E80080FF53
:102B1000FCCF809104018093F1008091E8008E77D2
:102B2000D9CF80918002813209F060CF8091E80096
:102B3000877F8093E8000E94F20C8091830280934B
:102B40007C0254CF80918002813A09F04FCF80916E
:102B5000E800877F8093E8008091E80080FFFCCF49
:102B600080917C02D8CF803899F0823809F0BAC1C0
:102B7000809184028F70873008F0B4C18093E9009F
:102B80008091EB0085FB882780F91092E90006C050
:102B900080917D0290918903911182609091E8006B
:102BA000977F9093E8008093F1001092F10080915C
:102BB000E8008E7793C1882309F481C1823009F03F
:102BC00091C180918202811184C1809184028F70B1
:102BD0002FEF280F263008F085C18093E90020915F
:102BE000EB0020FF76C1933031F48091EB008062DE
:102BF0008093EB006EC19091EB0090619093EB009D
:102C000021E030E001C0220F8A95EAF72093EA0024
:102C10001092EA008091EB008860EACF811162C1D6
:102C2000109182021F778091E3008078812B80933E
:102C3000E3008091E800877F8093E8000E94F20C17
:102C40008091E80080FFFCCF8091E3008068809352
:102C5000E30082E0111183E080938A0343C180582E
:102C6000823008F03FC140918202509183024C3D76
:102C700083E0580799F583E08A838AE289834FB716
:102C8000F894DE01139620E03EE051E2E32FF0E0FD
:102C900050935700849120FF03C082958F703F5F4F
:102CA0008F708A30C8F0895C90E08D939D932F5F80
:102CB000243161F74FBF8091E800877F8093E8005F
:102CC0006AE270E0CE0101960E94980C8091E800C3
:102CD0008B778093E80006C1805DE6CF2091840267
:102CE00030918502852F99278330910509F160F491
:102CF0008130910509F472C0029709F0F3C08BE3AB
:102D000090E0E7E6F1E029C08132910509F45AC06C
:102D1000829709F0E7C02115310509F469C0213017
:102D2000310509F0DFC08BE790E0ECEAF0E015C078
:102D3000CA0199274130B1F18230910509F43AC0B6
:102D4000892B09F0CFC0E4EEF1E0E4918E2F90E002
:102D5000E4EEF1E0009709F4C5C02091E800277F78
:102D60002093E80020918602309187028217930712
:102D700008F49C0140E02115310509F03EC04111E5
:102D80003CC08091E80082FDA1CF80918A03882316
:102D900009F49CCF853009F499CF8091E80083FF36
:102DA000F0CF94CFEAECF1E0E4918E2F90E0EAECE2
:102DB000F1E0D0CFE4EBF1E0E4918E2F90E0E4EB92
:102DC000F1E0C8CF2115310571F02130310509F04E
:102DD00089C089E090E0E2E9F1E0BFCF82E190E0D4
:102DE000E2EAF1E0BACF89E090E0E9E7F1E0B5CFBF
:102DF00080E490E0E7E2F1E0B0CF80918A0388239D
:102E000009F464CF853009F461CF8091E80083FD37
:102E10005DCF8091E80082FDB4CF8091E80080FF13
:102E2000AACF9091F3008091F2002115310519F09D
:102E30008830910550F041E0089709F040E080911A
:102E4000E8008E778093E80096CF44914093F1009C
:102E50003196215031090196E8CF803809F042C0FF
:102E60008091E800877F8093E80080917E028093C4
:102E7000F1009DCE811136C010918202123090F582
:102E80008091E800877F8093E80010937E020E9483
:102E9000F20C112311F084E005C08091E30087FD5E
:102EA000FACF81E080938A0342E061EC81E00E94E6
:102EB000B30F42E261EC82E00E94B30F13C0809135
:102EC0008202813079F481E0933009F080E08093D0
:102ED00089031092E9008091E800877F8093E800E1
:102EE0000E94F20C8091E80083FF0AC08091E80004
:102EF000877F8093E8008091EB0080628093EB00F5
:102F0000AA960FB6F894DEBF0FBECDBFDF91CF916A
:102F10001F9108950F931F93CF93DF938B01D82FA9
:102F2000C92F0E944B09A8016D2F7C2F88E090E0EB
:102F3000DF91CF911F910F910C94D32CE3EDF3E02F
:102F400083E0808311828FEF82838383148263E026
:102F500070E08FEF9FEF0C948A17CF93DF9300D030
:102F600000D0CDB7DEB78091D703833018F48F5FE0
:102F70008093D7038091D3039091D403A091D5037C
:102F8000B091D60389839A83AB83BC83BC01CD0106
:102F90000F900F900F900F90DF91CF910C948A17A4
:102FA000CF93DF9300D000D0CDB7DEB78091D703A9
:102FB000882319F081508093D7038091D303909197
:102FC000D403A091D503B091D60389839A83AB83B0
:102FD000BC83BC01CD010F900F900F900F90DF913B
:102FE000CF910C948A175F926F927F928F929F92EB
:102FF000AF92BF92CF92DF92EF92FF920F931F9307
:10300000CF93DF9300D000D000D00F92CDB7DEB7C2
:10301000182F762E042F622E9091D30390FF83C039
:10302000E92FE695AE2FB0E0A25DBE4F8C91809364
:10303000D1039E7F9230C9F59E012F5F3F4F812FB4
:103040000E943C094B8169818A810E94061310937A
:10305000D4037092D5030093D603662009F463C0AD
:103060008091D3039091D403A091D503B091D6035E
:103070008C839D83AE83BF83BC01CD0127960FB6A1
:10308000F894DEBF0FBECDBFDF91CF911F910F919E
:10309000FF90EF90DF90CF90BF90AF909F908F9078
:1030A0007F906F905F900C948A17823019F4009192
:1030B000D603CDCF863019F41091D403C8CF893010
:1030C000D9F3893121F6E9518E2F8170582EE6957A
:1030D000F0E0E851FD4FA590B490BB2489E4E82EC0
:1030E00083E0F82ED12CC12C9AE0892E912CC601B8
:1030F000B4010E94B22B812F511013C0860F97018B
:10310000402F672D0E943C09CA0CDB1C93E0E90E9E
:10311000F11CA7E6EA16A3E0FA0649F70E9435116A
:1031200096CF861BECCF27960FB6F894DEBF0FBE66
:10313000CDBFDF91CF911F910F91FF90EF90DF9066
:10314000CF90BF90AF909F908F907F906F905F9047
:103150000895E3EDF3E0818121E043816281885F9E
:103160000C94F317E3EDF3E0818121E04381628168
:1031700088500C94F317E3EDF3E0628121E1620FD4
:1031800008F46FEF21E0438181810C94F317E3EDA4
:10319000F3E0628121E1621B08F460E021E04381F9
:1031A00081810C94F317E3EDF3E0438121E1420FB9
:1031B00008F44FEF21E0628181810C94F317E3ED75
:1031C000F3E0438121E1421B08F440E021E0628109
:1031D00081810C94F31769EE7EEF90E080E00E940D
:1031E000DF2C60E082E090E00E94C12C60E083E090
:1031F00090E00E94C12C1092DA031092DB0310922F
:10320000DC031092DD0360E084E090E00E94C12CBA
:1032100060E082E290E00E94C12C60E085E090E0F6
:103220000E94C12C60E086E090E00E94C12C6FEF0C
:1032300087E090E00E94C12C40E050E0BA0188E0B5
:1032400090E00E94D32C60E08DE090E00E94C12CC1
:1032500040E050E0BA0188E190E00E94D32C60E0A9
:1032600087E190E00E94C12C40E050E0BA018CE17F
:1032700090E00E94D32C70E060E080E290E00E9439
:10328000DF2C40E050E0BA0188E190E00E94D32CAE
:1032900040E050E0BA018FE090E00E94D32C40E083
:1032A00050E0BA0183E190E00C94D32CCF9384E0FA
:1032B00090E00E949D2CC82F82E290E00E949D2CFD
:1032C000982F8C2FCF9108956F927F928F929F921B
:1032D000AF92BF92CF92DF92EF92FF920F931F9324
:1032E000CF93DF93CDB7DEB728970FB6F894DEBF44
:1032F0000FBECDBFFE01319688E0DF011D928A9599
:10330000E9F781E3E82E82E0F82E8F0195E3892E1C
:1033100092E0992E3F01AA24A394B12CF701819148
:103320007F018F3F09F44BC0F894E82FE295EF70CE
:10333000F0E021A18F70A50102C0440F551F8A95AE
:10334000E2F7CA01922F982B91A392A1809589232D
:1033500082A3789400C0E5E3F2E030E020E0D12CD5
:10336000C12C81918F3F09F463C0A82FA295AF7043
:10337000A05EB0E04C9150E08F7002C0559547952B
:103380008A95E2F740FD54C0C501022E02C0880FA5
:10339000991F0A94E2F7C82AD92A2F5F3F4F2C3091
:1033A0003105F9F6F701319780818F3F11F00E94C6
:1033B000520650EA5A95F1F7D801CD92DC920E5F91
:1033C0001F4F8E149F0409F0A9CF48E050E0B301CD
:1033D00086E993E00E94802C9C0111E0892B09F47E
:1033E00010E0232B41F188E0F301A6E9B3E001905E
:1033F0000D928A95E1F781E080938D030E94440B42
:1034000090938C0380938B0380918B0390918C031A
:103410000E94860C059798F088E0E6E9F3E0AEE8B4
:10342000B3E001900D928A95E1F710928D0307C0E9
:1034300080E090E0B0CF80918D038111E5CF812FA6
:1034400028960FB6F894DEBF0FBECDBFDF91CF91A7
:103450001F910F91FF90EF90DF90CF90BF90AF90B2
:103460009F908F907F906F900895EBECF3E085E351
:1034700080838091230190912401A0912501818373
:103480009283A3838FE784838FEF858346E050E0A8
:103490006CE170E0CF010C94B12CDF92EF92FF92BF
:1034A0000F931F93CF93DF93EC01FC01E950FE4F84
:1034B000808190912001892381F1D090CD030091EA
:1034C000CE031091CC03E12EF12C0E94632C282F07
:1034D000C7018C549F4F68E671E00E94C62B8E197D
:1034E0009F0997FD039695958795959587952370E8
:1034F000612F289F600D11247D2D802F0E94AB0825
:10350000462F672F282FCE01DF91CF911F910F916A
:10351000FF90EF90DF900C94C60ADF91CF911F913E
:103520000F91FF90EF90DF9008951F93CF93DF935B
:10353000EC01FC01E950FE4F80819091200189232C
:10354000C9F00E94632C182F0E94632C782F7F777C
:1035500020E8720F08F47FEF612F8091CE030E9464
:10356000AB08462F672F282FCE01DF91CF911F91F7
:103570000C94C60ADF91CF911F910895CF93DF93EA
:1035800000D000D0CDB7DEB79091D30390FF4CC0F0
:103590008823E1F18532E0F58F77880F9091D3038E
:1035A0009170892B8093D303662381F08091D3039C
:1035B0009091D403A091D503B091D60389839A83C7
:1035C000AB83BC83BC01CD010E948A176091D303F9
:1035D000669570E04BE050E088E091E00E94732C2B
:1035E000892BC1F01092D20381E080936C0320E01C
:1035F0004091D6036091D5038091D4030F900F9032
:103600000F900F90DF91CF910C94F31781E0C5CF0D
:1036100084E2C3CF81E08093D2030E94440B909355
:103620006A0380936903E0CF0F900F900F900F9083
:10363000DF91CF9108958091D30386958F5F853276
:1036400008F081E061E00C94BE1A9091D303969546
:103650008FEF890F913009F484E261E00C94BE1A77
:103660009091D30390FF07C09695981720F0961776
:1036700010F40C941B1B61E00C94BE1A8F929F9265
:10368000AF92BF92CF92DF92EF92FF920F931F9370
:10369000CF93DF9300D000D000D0CDB7DEB78C0140
:1036A000DC019C9111968C91119713962D913C9170
:1036B000232B21F089238F3F09F05BC526960FB697
:1036C000F894DEBF0FBECDBFDF91CF911F910F9158
:1036D000FF90EF90DF90CF90BF90AF909F908F9032
:1036E000089527E245EE65EED80112968C910E946E
:1036F00046148091E403877009F3D80112968C91E7
:103700008823E1F282E026960FB6F894DEBF0FBE62
:10371000CDBFDF91CF911F910F91FF90EF90DF9080
:10372000CF90BF90AF909F908F900C946A0C26E240
:1037300041EE60EEF8018281DACF26E241EE62EEE0
:10374000F9CF8D809E8022E682162DE5920609F43F
:1037500054C58091D80382728983AD80BE8027EDE5
:10376000A2162CE5B20608F0DDC033ECA3163CE54A
:10377000B30608F4E9C0F501E45CFC45E331F1056A
:1037800008F048C1E959F24D0C94DA2BED81FE8125
:10379000E350FC458091E2038160E331F10570F56F
:1037A000E658F24D0C94DA2B8D809E8024E0821630
:1037B0002DE5920688F43BEF83163CE5930608F46A
:1037C00030C5ED81FE81EC5FFC45E830F10508F580
:1037D000E357F24D0C94DA2B8D809E8022E6821600
:1037E0002DE5920609F01DC59091E203892F8F7E89
:1037F00094FF806103C08091E20382608093E203C2
:1038000010C58091E2038460F9CF8091E203886063
:10381000F5CF8091E30381608093E30302C580913B
:10382000E3038260F9CF8091E2038061E7CF80916A
:10383000E2038062E3CF8091E2038064DFCF0E94E5
:10384000C7148091E2038068D9CF8091E2038C6035
:10385000D5CF8091E3038360DFCF8091E2038E7F39
:10386000CDCF8091E2038D7FC9CF8091E2038B7F22
:10387000C5CF8091E203877FC1CF8091E3038E7F24
:10388000CBCF8091E3038D7FC7CF8091E2038F7E02
:10389000B5CF8091E2038F7DB1CF8091E2038F7B22
:1038A000ADCF0E94C7148091E2038F77A7CF80919C
:1038B000E203837FA3CF8091E3038C7FADCF809120
:1038C000E20382FB992790F921E0922790FB82F98D
:1038D00090FB83F993CF8091E303982F909591709B
:1038E0008E7F892B90FB81F997CF0E94C71490910E
:1038F000E203892F97FB87F9805880CF61E08EE043
:1039000090E00E94C12C8DC460E0F9CF85E3CBC468
:103910008091C903811104C089E20E948303C5C458
:1039200085E3FBCF8D809E802EE582162DE59206E5
:1039300009F4DFCE8D809E802BE582162DE5920660
:1039400009F46DC108F045C18D809E8081142CE57D
:10395000920609F454C13FED83163CE5930609F441
:103960005BC1F8018281E080F18080808982D18012
:10397000882309F458C1C7010E94A4058D83682FCC
:10398000C7010E9409039980E92DF0E02CE0D29E46
:10399000E00DF11D11248D8030E3839EE00DF11DBB
:1039A0001124EE0FFF1FE150FC4F859194910E946E
:1039B0001B048D839983D8011296AC9012971596AB
:1039C0009C9092944FE094228091E4038770A1F040
:1039D000CA2CAA2091F0892F807F803421F08D811C
:1039E000805E883048F082E00E946A0C8091E40397
:1039F0008770CC24C3948111C12C898182958F70EA
:103A0000E82EF12C8C3008F04CC1F701EB56F24D4A
:103A10000C94DA2B8091D30380FF2BC08E7F809390
:103A2000D3038091D3039091D403A091D503B09197
:103A3000D60389839A83AB83BC83BC01CD010E94EA
:103A40008A171092D2039FEFA0E7B2E09150A040F6
:103A5000B040E1F700C000000E9435118091CB0317
:103A600091E089278093CB03109222019093CA039F
:103A700040CE81608093D30361E086950E94BE1A98
:103A8000EDCF45E25BE16BE17BE189810E94070BB1
:103A900048EA5FE06EE97FE089810E94070B29CE4A
:103AA0004BE15BE165E27BE189810E94070B4EE916
:103AB0005FE068EA7FE0F0CF42EB58E169EA78E145
:103AC00089810E94070B45EA5DE06CE97DE0E4CF67
:103AD00049EA58E162EB78E189810E94070B4CE9E1
:103AE0005DE065EA7DE0D8CF47EC58E16BEB78E12B
:103AF00089810E94070B4AEB5DE06EEA7DE0CCCF46
:103B00004BEB58E167EC78E189810E94070B4EEAA4
:103B10005DE06AEB7DE0C0CF4FED58E163ED78E109
:103B200089810E94070B42ED5DE066EC7DE0B4CF39
:103B300043ED58E16FED78E189810E94070B46EC77
:103B40005DE062ED7DE0A8CF40ED57E16DEA77E101
:103B500089810E94070B46ED5AE06AEC7AE09CCF1F
:103B60004DEA57E160ED77E189810E94070B4AEC4D
:103B70005AE066ED7AE090CF61E081E00E94BE1AE3
:103B800081E00E94830FB5CD65E082E00E94301B8A
:103B900085E0F7CF68E086E00E94301B8DE0F1CF32
:103BA0006EE089E00E94301B82E1EBCF64E18FE0A0
:103BB0000E94301B9ECD67E185E1FACF61E088E18C
:103BC0000E94BE1A96CD62E289E1F2CF61E083E203
:103BD000F7CF8D809E802CE582162DE5920609F1A7
:103BE0003DE58316930609F0BCCE8091E30382FB8A
:103BF000882780F991E089270E94AD14B2CE0E94F7
:103C0000C7144FEF54E38CE0415050408040E1F73F
:103C100000C000000E94A0130E94EB186ACD81E052
:103C2000EBCF80E0E9CFC7010E9437038D83ABCE95
:103C3000B981BF70DB2EE981E07F19F0D29420EFCB
:103C4000D222AA20D1F0DD2071F08D81805E8830F3
:103C500018F08D8081100BC08091D8038D2980933E
:103C6000D8030E9496038D810E9471101AC0809122
:103C7000E5038D298093E503F4CF8D810E94760BB7
:103C8000DD2079F0D0948D81805E883018F09D80A1
:103C900091103EC08091D8038D218093D8030E945B
:103CA000960388E0E81AF10894E0E916F10410F4AC
:103CB0000E940C0BCC20B1F08091E40380FD12C077
:103CC000D80112961C928595859585950E94040CC5
:103CD000C8010E943E1B8091E403859585958595DA
:103CE0000E94350C60E0C80126960FB6F894DEBF3E
:103CF0000FBECDBFDF91CF911F910F91FF90EF903D
:103D0000DF90CF90BF90AF909F908F900C94010662
:103D10008091E5038D218093E503C1CF29812F7028
:103D2000D22E3981307F303219F0D29490EFD922DF
:103D30008D80882089F0282D213099F1AA20F1F179
:103D40009920A9F1D80115968C91159780FF8BCFFA
:103D50008F7015968C932BC0AA20B1F09091D90347
:103D60008D2D892B911003C00E94C3039ACF31E09F
:103D70009312FACF2091E30322FD93CF981709F411
:103D800090CF8093D9038DCF911006C00E949003ED
:103D90008D2D0E94CD0385CF41E0941609F481CF8B
:103DA000F5CFAA2031F055E0591508F47ACF8D2DC2
:103DB000DBCF84E0891508F474CFEACF992041F372
:103DC000BD81B93349F4EFEFF7EE23E0E150F04065
:103DD0002040E1F700C000008D810E94760B61CF8A
:103DE000898186958695837069F0813009F059CF75
:103DF0008D8199819370A11002C090E080E00E94B3
:103E00002E0B4FCF8D8199819370A11002C090E04D
:103E100080E00E94180B45CF8D81AA2029F00E94D6
:103E2000E9070E94500B3DCF0E943208FACF8981EA
:103E3000837009F07CC0A11034CF2D812295269586
:103E40002770220F220F4D814F7050E070E060E02C
:103E5000022E04C0440F551F661F771F0A94D2F725
:103E60008D8080E090E0DC0184FE0FC08FE090E068
:103E7000A0E0B0E004C0880F991FAA1FBB1F2A95BD
:103E8000D2F780959095A095B09599809694969448
:103E9000292D2370223059F1233009F441C080903C
:103EA000DA039090DB03A090DC03B090DD032130B7
:103EB00099F0842B952BA62BB72B9C01AD012821C3
:103EC00039214A215B2129833A834B835C83CA01D0
:103ED000B9010E94F00BE5CE842A952AA62AB72ABA
:103EE000A5019401282B392B4A2B5B2BECCF842B7B
:103EF000952BA62BB72B4091DA035091DB036091F1
:103F0000DC037091DD034C015D0184269526A62615
:103F1000B72689829A82AB82BC82C501B401D9CF0F
:103F20004A015B01882A992AAA2ABB2AF2CFAA2031
:103F300009F452C0998090FEB4CE2D812295269529
:103F40002770220F220F4D814F7050E070E060E02B
:103F5000022E04C0440F551F661F771F0A94D2F724
:103F6000BD8080E090E0DC01B4FE0FC08FE090E007
:103F7000A0E0B0E004C0880F991FAA1FBB1F2A95BC
:103F8000D2F780959095A095B09589808694869477
:103F9000282D2370223079F1233009F43FC080901E
:103FA000DE039090DF03A090E003B090E1032130A6
:103FB000B9F0842B952BA62BB72B9C01AD012821A2
:103FC00039214A215B2129833A834B835C83CA01CF
:103FD000B9010E94FA0B65CEA980A1FE62CEADCFD9
:103FE000842A952AA62AB72AA5019401282B392BC1
:103FF0004A2B5B2BE8CF842B952BA62BB72B40911C
:10400000DE035091DF036091E0037091E1034C0106
:104010005D0184269526A626B72606C04A015B01C7
:10402000882A992AAA2ABB2A89829A82AB82BC82D0
:10403000C501B401CECF29812F702983AA2029F090
:10404000822F0E94040C8D818FCE8D810E94CD0322
:1040500089810E94350C25CE3D81323F09F44FC045
:1040600068F4303F41F1313F09F441C0AA2009F41E
:104070006FC09110F8CD89818F713EC04D81433F53
:1040800009F442C0443F91F7AA2009F455C02981A0
:104090002F712983822F0E94040C8091E30382FDFB
:1040A00049C0898038E0839EC001112483608093D9
:1040B000E403882D21C0AA20A1F054E0591508F48A
:1040C000F0CD89818F71898381E090E0A0E0B0E03C
:1040D000098004C0880F991FAA1FBB1F0A94D2F73A
:1040E0008ECF85E0A82EA91408F4DBCDEACF898114
:1040F0008F71AA2009F4ADCF0E94040CD2CD898122
:104100008F71AA20C9F3A5CF60E070E0CB01AA208F
:1041100009F45FCF29812F7181E090E0A0E0B0E049
:104120004C015D0104C0880C991CAA1CBB1C2A957B
:10413000D2F77ACF8981E0CF81E00E946A0CAA246D
:10414000A394A91408F0ADCD82E00E946A0CA9CD19
:10415000992061F02D81293309F03ECE3FEF47EEE3
:1041600053E0315040405040E1F734CE89818F71A7
:1041700070CF61E0C8010E9401068D839E838D800F
:104180009E8024EF82162CE5920609F4D0CA08F02E
:1041900059C049ED84164CE5940609F4A2CA28E2F8
:1041A00041E065EE5AED85165CE5950609F4C2CA54
:1041B00026E241EE61EE88ED88168CE5980609F45A
:1041C000B9CAD80112969C91992309F456C010924D
:1041D000C8038D809E8024E082162DE5920608F0AB
:1041E000B0CA3BEF83163CE5930638F494012250A5
:1041F0003C452431310508F05BC00E94561990936C
:10420000E3038093E2038D809E8026E182162CE5F5
:10421000920608F0C9CA32E083163CE5930608F01E
:10422000B5CA6091E2038090E303898284E090E064
:104230000E94C12C698182E290E00E94C12C0E9400
:10424000C71457CA8D809E8026EF82162CE59206F1
:1042500009F473CA27E245EE66EE37EF83163CE5B4
:10426000930609F441CA45EF84164CE5940609F01B
:10427000A8CF27E245EE64EE37CA8D809E8026E106
:1042800082162CE5920609F06CCB8091D803992315
:1042900009F43ECB8A7A91E009F490E09093C90347
:1042A000811134CB89E20E946A030E94960321CADD
:1042B0008D809E8026E182162CE5920631F349CA54
:1042C0001F93CF93DF9380911D04807FA9F4809189
:1042D0001A04882389F08091E703C091E603709166
:1042E000180460911904A0911B04B0911C04D62FEE
:1042F000D72316E0C81304C0DF91CF911F91089512
:1043000090E0109711F0DF3F19F401968770F2CF1B
:10431000189F9001199F300D1124F901E851FC4FAD
:1043200041816413F2CF40814713EFCF42814111A5
:10433000ECCF438154814A1B5B0B483C510528F765
:1043400080911D048F70806180931D04F901E351F9
:10435000FC4F80818F708061808388E194E00E94AF
:104360003E1BDF91CF911F910C946003AF92BF92DF
:10437000CF92DF92EF92FF920F931F93CF93DF9331
:10438000CDB7DEB72B970FB6F894DEBF0FBECDBF0B
:104390008C0185E0F801DE01179601900D928A9557
:1043A000E1F7F801E280C380D48088E1A82E84E0A0
:1043B000B82E209118049091190440911B0450913B
:1043C0001C044115510529F0892F82238F3F09F0E4
:1043D0002BC1EE2009F436C1F801808191810E9441
:1043E0004410F82E882309F42DC186E0F801A8E1D5
:1043F000B4E001900D928A95E1F7809118049091B4
:1044000019040E9435060E94602120C080911D047D
:10441000682F607F483C510508F0A6C0F801318143
:104420006111C1C0FE2C391323C09081921320C0AA
:10443000E1101EC08F70806180931D0488E194E0BC
:104440000E943E1B80911D04F80185838F2D2B96C1
:104450000FB6F894DEBF0FBECDBFDF91CF911F9195
:104460000F91FF90EF90DF90CF90BF90AF900895A5
:104470002F81CD2829F0832F82238F3F09F090C010
:1044800080E0F82FF170DF2EE091E7034091E60322
:1044900056E080FD1CC0EE20C9F280911D048160B1
:1044A00080931D04F12CD2CF8E2F90E05E9FF001FF
:1044B0001124E851FC4F6181361306C060816213FC
:1044C00003C06281E612E7CF0196E82FE770E4139C
:1044D000EBCF8F8198850E943506292F22952F706A
:1044E000903260F0225F2F70223078F49F7051F08C
:1044F000F8019581907F31F4D12C0AC09F7011F0A2
:104500008823D1F3805E8830B8F3C8010E943E1B37
:10451000FD2C9CCFF801808191810E94441088235A
:1045200009F490C0EE2009F48DC080911D04803202
:1045300070F020911804309119043A8329831B826A
:10454000DD82CC828E83CE0101960E943E1B86E0E6
:10455000F801A8E1B4E001900D928A95E1F70E947C
:104560006021FF24F39472CF611132C088E194E09E
:104570000E943E1B86E0F50111928A95E9F792CFE1
:10458000F801808191810E9444108111E0CF8091D7
:104590001D04816080931D04C8010E943E1B56CFFC
:1045A00081E08E256ECF3913B5CFF801908192133B
:1045B000B1CFE110AFCF8583C8010E943E1B86E0DA
:1045C000F801A8E1B4E001900D928A95E1F73ECFA1
:1045D000F801318193139ECFF801908192139ACF05
:1045E000E11098CF8583C8010E943E1B86E0F5014B
:1045F00011928A95E9F72ACFF80181819813C0CFEB
:10460000F80180818213BCCF80911D0480FDD7CF3B
:10461000982F907FA1F28583903F71F2982F907F21
:10462000905F8F70892BC7CFF0901A04B601641B7E
:10463000750BAB01F110EACE483C5105B8F6FE2CE3
:10464000E110DACFC8010E943E1B8BCF1F93CF939E
:10465000DF93CDB7DEB767970FB6F894DEBF0FBE16
:10466000CDBF342F4B8B252F5C8B962F6D8B7E8B84
:104670008F8B4E895F8961111092E5031A8A3D87FD
:104680002E879F87598B488B86E0FE013D96DE0181
:10469000179601900D928A95E1F7CE0107960E9438
:1046A000B621882389F016E08091E7039091E60314
:1046B000891349C067960FB6F894DEBF0FBECDBF11
:1046C000DF91CF911F91089586E0FE013796DE01BC
:1046D000119601900D928A95E1F79F81888520912E
:1046E000E6034091E7036A857B85672BE1F2892326
:1046F0008F3FC9F230E0C9010196877099274817AA
:10470000190671F40E94C7141092E6031092E70391
:1047100086E0E8E1F4E0DF011D928A95E9F7C3CF76
:1047200096E0929FD001939FB00D1124A851BC4FE9
:10473000FE01319601900D929A95E1F78093E60380
:104740000E946003B0CF819FC001112488519C4F0B
:104750000E94B621882309F4ADCF8091E70390E051
:104760000196877099278093E7039ECFCDB7DEB778
:1047700060970FB6F894DEBF0FBECDBF84B7877FBA
:1047800084BF0FB6F894A8958091600088618093EB
:104790006000109260000FBE80E890E00FB6F894C1
:1047A00080936100909361000FBE85B7806885BFDC
:1047B00085B7806885BF80E596E09093710280930D
:1047C00070020E94420D0E94E30F8091E20084601B
:1047D0008093E200789480918A03882399F08091F5
:1047E000E9001091EC001795112717958F70182B81
:1047F0001092E9008091E80083FD0E94D2141F709E
:104800001093E90082E084BD93E095BD9AEF97BDD7
:1048100080936E0080E30E94520681E30E9452065C
:1048200082E30E94520683E30E94520605E312E0EF
:10483000D8018D918D018F3F11F00E945206B2E098
:1048400001341B07A9F71092970310929603109258
:104850008F0310928E031092990310929803109276
:1048600091031092900310929B0310929A0310925E
:1048700093031092920310929D0310929C03109246
:1048800095031092940390E080E00E94AB2C893E47
:104890009E4F11F00E94EB1882E090E00E949D2C48
:1048A000809380030E9456199093E3038093E20360
:1048B0000E9464198FE39CE90197F1F700C00000A2
:1048C0000E94641980918E0380FF08C06FEF7FEF14
:1048D00090E080E00E94DF2C0E94A01383E090E033
:1048E0000E949D2C282F30E050E040E02C873D872F
:1048F0004E875F87CA01B9010E94F00B90E080E00B
:104900000E94AB2C893E9E4F21F00E94EB180E9422
:10491000351A46E050E06CE170E08BEC93E00E94C9
:104920008D2C8091CB038C7F11F40E94351A8091DD
:104930006703811136C090E080E00E94AB2C893E75
:104940009E4F21F00E94EB180E949E1788E090E095
:104950000E94A52C6093D3037093D4038093D50356
:104960009093D6036E7F71F40E949E1788E090E0CA
:104970000E94A52C6093D3037093D4038093D50336
:104980009093D6030E944B091092D2038091D303D7
:1049900080FF04C060E086950E94BE1A81E080938B
:1049A000670383E191E090939F0380939E0358E116
:1049B000652E712C60E4962E76E9A72E73E0B72E53
:1049C000CE0101966C0180918A0300E112E18530ED
:1049D00009F4F1C00E946419882359F08FB7F89444
:1049E0004091730350917403609175037091760345
:1049F0008FBFAEE8B3E0E1E8F3E010E000E0702F35
:104A00008D919D91219131912817390709F4E3C0C7
:104A10002827392760E0EE24E394F12CA9014E21E8
:104A20005F21452B09F4D1C069837A839C012E2133
:104A30003F2191E0232B09F490E09B830E94440BDB
:104A40008160782F9D838C8349815A816B81892F66
:104A50000E942623000F111FF801EF57FC4F8081A1
:104A600091818E259F25918380838091D203882315
:104A7000D1F18091D103E091D303E695E81BE09357
:104A80006B03823009F0BEC0F0E0E550FC4FE491CA
:104A90000E2F10E0B6E7EB2EB3E1FB2E80916C03F6
:104AA000882361F010926C030E94440B90936A0378
:104AB0008093690310926E0310926D030E94440B61
:104AC0002091690330916A03821B930B8F3F9F47AC
:104AD00050F4200F311F30936A032093690389E655
:104AE00093E0F70109958FB7F894409173035091C3
:104AF000740360917503709176038FBF40936F03C9
:104B00005093700360937103709372038091CB0391
:104B1000F82FF3708F2E19F0882E8694869490913A
:104B20002201923009F441C408F0CAC09111A0C119
:104B300010921F0140937703509378036093790399
:104B400070937A0381E080932201BDC080918A0333
:104B5000843009F1109268030FB6F894A89560921A
:104B600060000FBE9092600083B7817F846083BF36
:104B700083B7816083BF7894889583B78E7F83BF26
:104B80000FB6F894A89580916000886180936000CA
:104B9000109260000FBE80918903882361F00E940B
:104BA0006419EEE8F3E081919191892B09F042C4F8
:104BB000AE16BF06C1F780918A03853009F4C6CFCF
:104BC0000E94C7140E940C0B05CF6F5FEE0CFF1CF8
:104BD0006C3009F023CF0F5F1F4F0430110509F02F
:104BE0000ECF8FEF8F83888719860E94440B8160D8
:104BF000782F9B878A874F8158856985892F0E94E6
:104C0000262333CF853109F447C068F4893061F138
:104C10008F30B1F18630E9F000ED17E036EAE32E8F
:104C200037E0F32E3BCF833209F441C004EF11E0AB
:104C300049E4E42E41E1F42E843209F42FCF08E256
:104C400010E0A2E6EA2EA2E1FA2E883109F426CF7E
:104C5000E3CFF0E0E850FC4FE4910E2F10E0FAE8CB
:104C6000EF2EF3E1FF2E1ACFE695F0E0EB50FC4F6C
:104C7000E4910E2F10E0E1E8EE2EE1E1FE2E0ECFE2
:104C8000E695F0E0EE50FC4FE4910E2F10E07BEA49
:104C9000E72E71E1F72E02CFF0E0E151FC4FE491F5
:104CA0000E2F10E064E1E62E62E1F62EF7CEEDEE77
:104CB000F3E00591149157E1E52E53E1F52EEECE88
:104CC000933009F47AC386E0E2ECF3E0D601019078
:104CD0000D928A95E1F75090C4038090C503E0904F
:104CE000C603F090C7031092C4031092C50310923C
:104CF000C6031092C703852D88291C2D0D2D09F49C
:104D000048C080917D0390917E030E94860C9C0197
:104D10008091C103882309F4A8C323333105C8F166
:104D20008F3F19F08F5F8093C103552059F00E9487
:104D3000A7079FEF15140CF491E0899F802D112493
:104D40008093C403882059F00E94A7079FEF18148E
:104D50000CF491E0899F802D11248093C50330913C
:104D6000C4033323B1F02091C503222391F045EB16
:104D70003403C0011124992309F44CC39093C40354
:104D800055EB250390011124332309F447C33093D5
:104D9000C5038E2D8F2909F448C080917B03909123
:104DA0007C030E94860C9C018091C003882309F437
:104DB00057C325363105C8F18F3F19F08F5F8093B7
:104DC000C003EE2059F00E94C7079FEF1E140CF499
:104DD00091E0899F802D11248093C603FF2059F014
:104DE0000E94C7079FEF1F140CF491E0899F802D4C
:104DF00011248093C7033091C6032091C703332346
:104E0000A1F0222391F045EB3403C0011124992332
:104E100009F408C39093C60355EB250390011124B0
:104E2000332309F403C33093C7038091C4039091E3
:104E3000C503892B9091C603892B9091C703892BB9
:104E400011F00E94500B86E0E12FF02FA2ECB3E0AE
:104E500001900D928A95E1F70E940C0B90917F03CF
:104E6000891709F4B0CD0E940C0B80937F03ABCD62
:104E700090911E01891223C0837020911D0130E0A2
:104E800091E08217130609F490E0892F81708093D6
:104E900021018091D00390912001981739F08093DF
:104EA000200140E060E080E00E94C80A2BE1281564
:104EB00060F0E82DF0E0EF55F24D0C94DA2B81E034
:104EC000E5CF80912101811102C010E069C040E06E
:104ED00060E080E00E94C80AF8CF00911F018CE0DA
:104EE000089F002D11242CE0F22EF00E3F2C3AE307
:104EF0003F1510F49AE3392E6091CC037091CD03E5
:104F00008091CE030E94AB08E62E572E482E10E06B
:104F1000031530F011E049E34F1508F041C0D5CF3B
:104F2000F801E950FE4F808190912001892331F0F2
:104F3000242D4E2D652DC8010E94C60A0F5F1F4FFC
:104F4000E7CF00911F018CE0089F002D11245CE049
:104F5000500F5C87252E5B3310F08AE3282E1091CA
:104F6000CC034090CD035090CE03612F742D852D3E
:104F70000E94AB08F62E788BE82E8091CF03612F2C
:104F8000680F742D852D0E94AB08562E472E382EA3
:104F900010E00215B8F011E08C858A3308F095CF47
:104FA00080911F018F5F80931F0111118CCE82E0D1
:104FB0008093220180912101811185CE811083CEC1
:104FC00083E0C1CDF801E950FE4F9081809120012E
:104FD000892359F0232D452D642D90FD03C02E2DDE
:104FE0004F2D6889C8010E94C60A0F5F1F4FD1CF9D
:104FF00000911F018CE0089F002D11241CE0F12E70
:10500000F00E5F2C9AE39F1510F4BAE35B2E4090EC
:10501000CD033090CE032091CF03392D329F312D17
:105020001124E32E10E0051508F074CFF801E950C3
:10503000FE4F8081909120018923B9F0F801EE0F95
:10504000FF1FED5AFE4F81A982958F706091CC03AE
:105050008E9D600D1124742D832D0E94AB08462F68
:10506000672F282FC8010E94C60A0F5F1F4FDBCF92
:1050700000911F018CE0089F002D1124FCE0FF2E01
:10508000F00E5F2C5AE35F1510F4EAE35E2E4090B9
:10509000CD033090CE032091CF03392D329F312D97
:1050A0001124E32E10E0051508F034CFF801E95083
:1050B000FE4F8081909120018923D9F0F801EE0FF5
:1050C000FF1FED5AFE4F80A9E89EC001112475E034
:1050D000959587957A95E1F76091CC03680F742DCB
:1050E000832D0E94AB08462F672F282FC8010E94EE
:1050F000C60A0F5F1F4FD7CF00911F018CE0089F9A
:10510000002D11245CE0F52EF00EEF2C5AE35F1514
:1051100010F44AE3E42E5090CC031091CD0340905C
:10512000CE036091CF03669566956695809177036F
:10513000909178030E945A090E94BD09805887FD0A
:105140008195880F282F342D239F212D1124652D23
:10515000712F822F0E94AB08562E472E382E10E05A
:105160000E1508F0D7CEF801E950FE4F80819091DE
:105170002001892331F0232D452D642DC8010E9483
:10518000C60A0F5F1F4FECCF8BE797E00E94340FEA
:1051900007C08EE497E0FACF88EA9AE00E94DE0D1D
:1051A000182FFECE89E89AE0F9CF8EE69AE00E94A9
:1051B0003E0EF6CF83E59AE0FACF8CE497E0E6CF97
:1051C00083E497E0E3CF8AE397E0E0CF81E297E0E2
:1051D000DDCF82E197E0EBCF84E999E0DFCF82E495
:1051E0009AE0DCCF8EE29AE0E2CF84EE96E00E9475
:1051F000BF0ED6CF85EB96E0FACF8CE796E0F7CFDF
:105200001091210111111CC06091CF0320E1620FA8
:1052100008F46FEF80917703909178030E945A0908
:105220006AE070E00E94B22B892B09F04ECE0E94FA
:10523000632C6AE370E00E94C62B0E944D1AB0CE28
:10524000E0901F018CE0E89E802D11243CE0532E5D
:10525000580E052D5AE3551508F40AE3E82EF12CF3
:1052600010E0E016F10634F011E099E3951508F02E
:1052700097CE2BCEC7010E944D1A8FEFE81AF80A7D
:10528000F0CF1091210111111CC06091CF0320E1DA
:10529000620F08F46FEF80917703909178030E947A
:1052A0005A0965E070E00E94B22B892B09F00DCEFF
:1052B0000E94632C6AE370E00E94C62B0E94951A3C
:1052C0006FCEE0901F018CE0E89E802D11242CE031
:1052D000522E580E052DAAE3A51508F40AE3E82E70
:1052E000F12C10E0E016F10634F011E0E9E3E515E9
:1052F00008F056CEEACDC7010E94951ABFEFEB1A0F
:10530000FB0AF0CF00911F018CE0089F002D1124B3
:105310009CE0F92EF00EEF2CFAE3FF1510F48AE36F
:10532000E82E4090CD035090CE031091CC036091B5
:10533000CF03669566956695809177039091780383
:105340000E945A090E94BD09805887FD8195880FE7
:10535000682F3CE0639F612D1124610F742D852D12
:105360000E94AB08562E472E382E10E00E1530F056
:1053700011E029E32F1508F013CEA7CDF801E9506D
:10538000FE4F808190912001892331F0232D452DFE
:10539000642DC8010E94C60A0F5F1F4FE7CF8CED36
:1053A00099E0F4CE8BE696E0F1CE80921E018370F8
:1053B00080931D010E949A1303CE8091CA03882313
:1053C00041F046E050E06CE170E08BEC93E00E942D
:1053D000B12C1092CA0340917703509178036091E9
:1053E000790370917A032FB7F894809173039091A9
:1053F0007403A0917503B09176032FBF841B950BA6
:10540000A60BB70B4097A105B10508F45CCC109230
:10541000220159CC81E08093C403B2CC81E0809317
:10542000C503B7CC81E08093C603F6CC81E08093BE
:10543000C703FBCC09BD19BD09B400FEFDCF8091A7
:10544000D8008F7D8093D8008091E00082608093A7
:10545000E0008091E00081FDFCCF0E94C714ABCB3F
:105460002D32314008F0AACCE0CC2D32314008F08A
:1054700059CC8FCC1F921FB61F9211248F939F93EC
:10548000AF93BF9380916803811113C08091730320
:1054900090917403A0917503B09176034196A11D7C
:1054A000B11D8093730390937403A0937503B0931D
:1054B0007603BF91AF919F918F911F901FBE1F9058
:1054C000189578941F921FB61F9211248F939F9363
:1054D000AF93BF938091730390917403A091750370
:1054E000B09176030196A11DB11D80937303909333
:1054F0007403A0937503B0937603BF91AF919F910E
:105500008F911F901FBE1F9018951F920F920FB67C
:105510000F9211242F933F934F935F936F937F9339
:105520008F939F93AF93BF93EF93FF938091E1008D
:1055300082FF09C08091E20082FF05C08091E100F6
:105540008B7F8093E1008091DA0080FF24C08091FE
:10555000D80080FF20C08091DA008E7F8093DA002F
:105560008091D90080FF99C080E189BD82E189BD29
:1055700009B400FEFDCF81E080938A0380917F0211
:10558000811109C00E94420D0E94E30F8091E20048
:1055900084608093E2008091E10080FF17C08091D9
:1055A000E20080FF13C08091E2008E7F8093E200D2
:1055B0008091E20080618093E2008091D800806257
:1055C0008093D80019BC85E080938A038091E10024
:1055D00084FF27C08091E20084FF23C080E189BD61
:1055E00082E189BD09B400FEFDCF8091D8008F7D96
:1055F0008093D8008091E1008F7E8093E1008091BC
:10560000E2008F7E8093E2008091E20081608093CF
:10561000E20080917E02882309F445C084E08093F3
:105620008A038091E10083FF27C08091E20083FF1D
:1056300023C08091E100877F8093E10082E0809326
:105640008A0310927E028091E1008E7F8093E100B8
:105650008091E2008E7F8093E2008091E200806181
:105660008093E20042E060E080E00E94B30F80910E
:10567000F00088608093F000FF91EF91BF91AF91AF
:105680009F918F917F916F915F914F913F912F915A
:105690000F900FBE0F901F90189519BC10928A039F
:1056A00010927F0278CF8091E30087FD02C081E0F5
:1056B000B6CF83E0B4CF1F920F920FB60F92112492
:1056C000FF920F931F932F933F934F935F936F938B
:1056D0007F938F939F93AF93BF93CF93DF93EF937A
:1056E000FF9309EE10E0F8018081C091EC00C795AE
:1056F000CC27C7958F70FC2EF82A1082C0EFD0E01F
:105700008881877F888378940E94D214F801108260
:10571000888188608883CF2DCF70C083FF91EF91FF
:10572000DF91CF91BF91AF919F918F917F916F91B9
:105730005F914F913F912F911F910F91FF900F908B
:105740000FBE0F901F90189587FB082E062687FD29
:10575000819567FD61950E94EF2B0EF4919507FCF2
:1057600081950895AA1BBB1B51E107C0AA1FBB1F4F
:10577000A617B70710F0A61BB70B881F991F5A95DD
:10578000A9F780959095BC01CD01089597FB072E50
:1057900016F4009407D077FD09D00E94B22B07FCC5
:1057A00005D03EF4909581959F4F08957095619531
:1057B0007F4F0895EE0FFF1F0590F491E02D09949F
:1057C0000E94392D332312F48A1B9B0B0C94EA2B75
:1057D0000E94392DB7FF0895821B930B0895991BE2
:1057E00079E004C0991F961708F0961B881F7A95D8
:1057F000C9F780950895CF92DF92EF92FF92CF93F1
:10580000DF93CDB7DEB72A970FB6F894DEBF0FBE91
:10581000CDBF89879A87A985BA852D913D914D91F4
:105820005C9129833A834B835C83232B242B252B88
:1058300041F424E239ED4BE557E029833A834B8369
:105840005C8369817A818B819C812DE133EF41E01A
:1058500050E00E94E52C69017A01A7EAB1E49B01BE
:10586000AC010E94042D69837A838B839C83ACEE08
:10587000B4EFA70196010E94122D9B01AC01898112
:105880009A81AB81BC81820F931FA41FB51FB7FF04
:1058900003C00197A109B048E985FA858083918307
:1058A000A283B3839F772A960FB6F894DEBF0FBE0C
:1058B000CDBFDF91CF91FF90EF90DF90CF90089513
:1058C0000E94FB2B089580E091E00E94FB2B08953D
:1058D000B0E0A0E08093000190930101A093020149
:1058E000B09303010895FC014150504030F0019005
:1058F0000616D1F73197CF01089588279927089583
:10590000FB01DC0104C08D910190801921F441500C
:105910005040C8F7881B990B0895DC01CB01FC01AE
:10592000F999FECF06C0F2BDE1BDF89A319600B4F8
:105930000D9241505040B8F70895F999FECF92BDAD
:1059400081BDF89A992780B50895A6E1B0E044E0BA
:1059500050E00C948F2CA8E1B0E042E050E00C94B1
:105960008F2CDC01A40FB51F4150504048F0CB01F3
:10597000840F951F2E910E94C22C41505040D0F7A9
:105980000895262FF999FECF92BD81BDF89A01970F
:1059900000B4021639F01FBA20BD0FB6F894FA9A77
:1059A000F99A0FBE08950396272F0E94C22C0E94D9
:1059B000C12C252F0E94C22C242F0C94C22C01969E
:1059C000272F0E94C22C0C94C12C052E97FB1EF48D
:1059D00000940E94FC2C57FD07D00E94172D07FC55
:1059E00003D04EF40C94FC2C5095409530952195A5
:1059F0003F4F4F4F5F4F08959095809570956195FB
:105A00007F4F8F4F9F4F08950E94392DA59F900D76
:105A1000B49F900DA49F800D911D11240895B7FF90
:105A20000C94042D0E94042D821B930B0895A1E277
:105A30001A2EAA1BBB1BFD010DC0AA1FBB1FEE1F08
:105A4000FF1FA217B307E407F50720F0A21BB30B53
:105A5000E40BF50B661F771F881F991F1A9469F7CF
:105A600060957095809590959B01AC01BD01CF012B
:105A70000895A29FB001B39FC001A39F700D811D27
:105A80001124911DB29F700D811D1124911D089547
:105A9000F894FFCFF207F807FB070108160816086D
:105AA0001608160816081608160816080408090825
:105AB0000D08130824082A082E08B315DB157217E1
:105AC000DB1572170E162F1672172D173A17411D78
:105AD000501D5C1D681D741D801D8C1D981DA41D0E
